{
	"data": {
		"bytecode": {
			"linkReferences": {},
			"object": "6080604052348015600e575f80fd5b506108918061001c5f395ff3fe608060405234801561000f575f80fd5b506004361061003f575f3560e01c8063188b85b4146100435780635ffe873314610073578063c12363a2146100a3575b5f80fd5b61005d600480360381019061005891906102d8565b6100c1565b60405161006a9190610312565b60405180910390f35b61008d60048036038101906100889190610467565b610104565b60405161009a9190610312565b60405180910390f35b6100ab610237565b6040516100b89190610312565b60405180910390f35b5f805f90505f8390505b83600a6100d89190610500565b8110156100fa5780826100eb9190610500565b915080806001019150506100cb565b5080915050919050565b5f80846040516020016101179190610585565b60405160208183030381529060405280519060200120905060405160200161013e906105e5565b60405160208183030381529060405280519060200120810361016e5782846101669190610500565b915050610230565b60405160200161017d90610643565b6040516020818303038152906040528051906020012081036101ad5782846101a59190610657565b915050610230565b6040516020016101bc906106d4565b6040516020818303038152906040528051906020012081036101ec5782846101e49190610715565b915050610230565b6040516020016101fb9061078f565b60405160208183030381529060405280519060200120810361022b57828461022391906107a3565b915050610230565b5f9150505b9392505050565b5f805f90505f805b600a81101561028b575f60028361025691906107e4565b146102785781836102679190610500565b9250808061027490610814565b9150505b818061028390610814565b92505061023f565b82935050505090565b5f604051905090565b5f80fd5b5f80fd5b5f819050919050565b6102b7816102a5565b81146102c1575f80fd5b50565b5f813590506102d2816102ae565b92915050565b5f602082840312156102ed576102ec61029d565b5b5f6102fa848285016102c4565b91505092915050565b61030c816102a5565b82525050565b5f6020820190506103255f830184610303565b92915050565b5f80fd5b5f80fd5b5f601f19601f8301169050919050565b7f4e487b71000000000000000000000000000000000000000000000000000000005f52604160045260245ffd5b61037982610333565b810181811067ffffffffffffffff8211171561039857610397610343565b5b80604052505050565b5f6103aa610294565b90506103b68282610370565b919050565b5f67ffffffffffffffff8211156103d5576103d4610343565b5b6103de82610333565b9050602081019050919050565b828183375f83830152505050565b5f61040b610406846103bb565b6103a1565b9050828152602081018484840111156104275761042661032f565b5b6104328482856103eb565b509392505050565b5f82601f83011261044e5761044d61032b565b5b813561045e8482602086016103f9565b91505092915050565b5f805f6060848603121561047e5761047d61029d565b5b5f84013567ffffffffffffffff81111561049b5761049a6102a1565b5b6104a78682870161043a565b93505060206104b8868287016102c4565b92505060406104c9868287016102c4565b9150509250925092565b7f4e487b71000000000000000000000000000000000000000000000000000000005f52601160045260245ffd5b5f61050a826102a5565b9150610515836102a5565b925082820190508082111561052d5761052c6104d3565b5b92915050565b5f81519050919050565b5f81905092915050565b8281835e5f83830152505050565b5f61055f82610533565b610569818561053d565b9350610579818560208601610547565b80840191505092915050565b5f6105908284610555565b915081905092915050565b7f73756d61000000000000000000000000000000000000000000000000000000005f82015250565b5f6105cf60048361053d565b91506105da8261059b565b600482019050919050565b5f6105ef826105c3565b9150819050919050565b7f72657374610000000000000000000000000000000000000000000000000000005f82015250565b5f61062d60058361053d565b9150610638826105f9565b600582019050919050565b5f61064d82610621565b9150819050919050565b5f610661826102a5565b915061066c836102a5565b9250828203905081811115610684576106836104d3565b5b92915050565b7f6469766973696f6e0000000000000000000000000000000000000000000000005f82015250565b5f6106be60088361053d565b91506106c98261068a565b600882019050919050565b5f6106de826106b2565b9150819050919050565b7f4e487b71000000000000000000000000000000000000000000000000000000005f52601260045260245ffd5b5f61071f826102a5565b915061072a836102a5565b92508261073a576107396106e8565b5b828204905092915050565b7f6d756c7469706c69636163696f6e0000000000000000000000000000000000005f82015250565b5f610779600e8361053d565b915061078482610745565b600e82019050919050565b5f6107998261076d565b9150819050919050565b5f6107ad826102a5565b91506107b8836102a5565b92508282026107c6816102a5565b915082820484148315176107dd576107dc6104d3565b5b5092915050565b5f6107ee826102a5565b91506107f9836102a5565b925082610809576108086106e8565b5b828206905092915050565b5f61081e826102a5565b91507fffffffffffffffffffffffffffffffffffffffffffffffffffffffffffffffff82036108505761084f6104d3565b5b60018201905091905056fea26469706673582212202df5be1c56064df5dfd9d713ec56cf0f9fe28abcea85fcda6115f8e9baafa8b764736f6c634300081a0033",
			"opcodes": "PUSH1 0x80 PUSH1 0x40 MSTORE CALLVALUE DUP1 ISZERO PUSH1 0xE JUMPI PUSH0 DUP1 REVERT JUMPDEST POP PUSH2 0x891 DUP1 PUSH2 0x1C PUSH0 CODECOPY PUSH0 RETURN INVALID PUSH1 0x80 PUSH1 0x40 MSTORE CALLVALUE DUP1 ISZERO PUSH2 0xF JUMPI PUSH0 DUP1 REVERT JUMPDEST POP PUSH1 0x4 CALLDATASIZE LT PUSH2 0x3F JUMPI PUSH0 CALLDATALOAD PUSH1 0xE0 SHR DUP1 PUSH4 0x188B85B4 EQ PUSH2 0x43 JUMPI DUP1 PUSH4 0x5FFE8733 EQ PUSH2 0x73 JUMPI DUP1 PUSH4 0xC12363A2 EQ PUSH2 0xA3 JUMPI JUMPDEST PUSH0 DUP1 REVERT JUMPDEST PUSH2 0x5D PUSH1 0x4 DUP1 CALLDATASIZE SUB DUP2 ADD SWAP1 PUSH2 0x58 SWAP2 SWAP1 PUSH2 0x2D8 JUMP JUMPDEST PUSH2 0xC1 JUMP JUMPDEST PUSH1 0x40 MLOAD PUSH2 0x6A SWAP2 SWAP1 PUSH2 0x312 JUMP JUMPDEST PUSH1 0x40 MLOAD DUP1 SWAP2 SUB SWAP1 RETURN JUMPDEST PUSH2 0x8D PUSH1 0x4 DUP1 CALLDATASIZE SUB DUP2 ADD SWAP1 PUSH2 0x88 SWAP2 SWAP1 PUSH2 0x467 JUMP JUMPDEST PUSH2 0x104 JUMP JUMPDEST PUSH1 0x40 MLOAD PUSH2 0x9A SWAP2 SWAP1 PUSH2 0x312 JUMP JUMPDEST PUSH1 0x40 MLOAD DUP1 SWAP2 SUB SWAP1 RETURN JUMPDEST PUSH2 0xAB PUSH2 0x237 JUMP JUMPDEST PUSH1 0x40 MLOAD PUSH2 0xB8 SWAP2 SWAP1 PUSH2 0x312 JUMP JUMPDEST PUSH1 0x40 MLOAD DUP1 SWAP2 SUB SWAP1 RETURN JUMPDEST PUSH0 DUP1 PUSH0 SWAP1 POP PUSH0 DUP4 SWAP1 POP JUMPDEST DUP4 PUSH1 0xA PUSH2 0xD8 SWAP2 SWAP1 PUSH2 0x500 JUMP JUMPDEST DUP2 LT ISZERO PUSH2 0xFA JUMPI DUP1 DUP3 PUSH2 0xEB SWAP2 SWAP1 PUSH2 0x500 JUMP JUMPDEST SWAP2 POP DUP1 DUP1 PUSH1 0x1 ADD SWAP2 POP POP PUSH2 0xCB JUMP JUMPDEST POP DUP1 SWAP2 POP POP SWAP2 SWAP1 POP JUMP JUMPDEST PUSH0 DUP1 DUP5 PUSH1 0x40 MLOAD PUSH1 0x20 ADD PUSH2 0x117 SWAP2 SWAP1 PUSH2 0x585 JUMP JUMPDEST PUSH1 0x40 MLOAD PUSH1 0x20 DUP2 DUP4 SUB SUB DUP2 MSTORE SWAP1 PUSH1 0x40 MSTORE DUP1 MLOAD SWAP1 PUSH1 0x20 ADD KECCAK256 SWAP1 POP PUSH1 0x40 MLOAD PUSH1 0x20 ADD PUSH2 0x13E SWAP1 PUSH2 0x5E5 JUMP JUMPDEST PUSH1 0x40 MLOAD PUSH1 0x20 DUP2 DUP4 SUB SUB DUP2 MSTORE SWAP1 PUSH1 0x40 MSTORE DUP1 MLOAD SWAP1 PUSH1 0x20 ADD KECCAK256 DUP2 SUB PUSH2 0x16E JUMPI DUP3 DUP5 PUSH2 0x166 SWAP2 SWAP1 PUSH2 0x500 JUMP JUMPDEST SWAP2 POP POP PUSH2 0x230 JUMP JUMPDEST PUSH1 0x40 MLOAD PUSH1 0x20 ADD PUSH2 0x17D SWAP1 PUSH2 0x643 JUMP JUMPDEST PUSH1 0x40 MLOAD PUSH1 0x20 DUP2 DUP4 SUB SUB DUP2 MSTORE SWAP1 PUSH1 0x40 MSTORE DUP1 MLOAD SWAP1 PUSH1 0x20 ADD KECCAK256 DUP2 SUB PUSH2 0x1AD JUMPI DUP3 DUP5 PUSH2 0x1A5 SWAP2 SWAP1 PUSH2 0x657 JUMP JUMPDEST SWAP2 POP POP PUSH2 0x230 JUMP JUMPDEST PUSH1 0x40 MLOAD PUSH1 0x20 ADD PUSH2 0x1BC SWAP1 PUSH2 0x6D4 JUMP JUMPDEST PUSH1 0x40 MLOAD PUSH1 0x20 DUP2 DUP4 SUB SUB DUP2 MSTORE SWAP1 PUSH1 0x40 MSTORE DUP1 MLOAD SWAP1 PUSH1 0x20 ADD KECCAK256 DUP2 SUB PUSH2 0x1EC JUMPI DUP3 DUP5 PUSH2 0x1E4 SWAP2 SWAP1 PUSH2 0x715 JUMP JUMPDEST SWAP2 POP POP PUSH2 0x230 JUMP JUMPDEST PUSH1 0x40 MLOAD PUSH1 0x20 ADD PUSH2 0x1FB SWAP1 PUSH2 0x78F JUMP JUMPDEST PUSH1 0x40 MLOAD PUSH1 0x20 DUP2 DUP4 SUB SUB DUP2 MSTORE SWAP1 PUSH1 0x40 MSTORE DUP1 MLOAD SWAP1 PUSH1 0x20 ADD KECCAK256 DUP2 SUB PUSH2 0x22B JUMPI DUP3 DUP5 PUSH2 0x223 SWAP2 SWAP1 PUSH2 0x7A3 JUMP JUMPDEST SWAP2 POP POP PUSH2 0x230 JUMP JUMPDEST PUSH0 SWAP2 POP POP JUMPDEST SWAP4 SWAP3 POP POP POP JUMP JUMPDEST PUSH0 DUP1 PUSH0 SWAP1 POP PUSH0 DUP1 JUMPDEST PUSH1 0xA DUP2 LT ISZERO PUSH2 0x28B JUMPI PUSH0 PUSH1 0x2 DUP4 PUSH2 0x256 SWAP2 SWAP1 PUSH2 0x7E4 JUMP JUMPDEST EQ PUSH2 0x278 JUMPI DUP2 DUP4 PUSH2 0x267 SWAP2 SWAP1 PUSH2 0x500 JUMP JUMPDEST SWAP3 POP DUP1 DUP1 PUSH2 0x274 SWAP1 PUSH2 0x814 JUMP JUMPDEST SWAP2 POP POP JUMPDEST DUP2 DUP1 PUSH2 0x283 SWAP1 PUSH2 0x814 JUMP JUMPDEST SWAP3 POP POP PUSH2 0x23F JUMP JUMPDEST DUP3 SWAP4 POP POP POP POP SWAP1 JUMP JUMPDEST PUSH0 PUSH1 0x40 MLOAD SWAP1 POP SWAP1 JUMP JUMPDEST PUSH0 DUP1 REVERT JUMPDEST PUSH0 DUP1 REVERT JUMPDEST PUSH0 DUP2 SWAP1 POP SWAP2 SWAP1 POP JUMP JUMPDEST PUSH2 0x2B7 DUP2 PUSH2 0x2A5 JUMP JUMPDEST DUP2 EQ PUSH2 0x2C1 JUMPI PUSH0 DUP1 REVERT JUMPDEST POP JUMP JUMPDEST PUSH0 DUP2 CALLDATALOAD SWAP1 POP PUSH2 0x2D2 DUP2 PUSH2 0x2AE JUMP JUMPDEST SWAP3 SWAP2 POP POP JUMP JUMPDEST PUSH0 PUSH1 0x20 DUP3 DUP5 SUB SLT ISZERO PUSH2 0x2ED JUMPI PUSH2 0x2EC PUSH2 0x29D JUMP JUMPDEST JUMPDEST PUSH0 PUSH2 0x2FA DUP5 DUP3 DUP6 ADD PUSH2 0x2C4 JUMP JUMPDEST SWAP2 POP POP SWAP3 SWAP2 POP POP JUMP JUMPDEST PUSH2 0x30C DUP2 PUSH2 0x2A5 JUMP JUMPDEST DUP3 MSTORE POP POP JUMP JUMPDEST PUSH0 PUSH1 0x20 DUP3 ADD SWAP1 POP PUSH2 0x325 PUSH0 DUP4 ADD DUP5 PUSH2 0x303 JUMP JUMPDEST SWAP3 SWAP2 POP POP JUMP JUMPDEST PUSH0 DUP1 REVERT JUMPDEST PUSH0 DUP1 REVERT JUMPDEST PUSH0 PUSH1 0x1F NOT PUSH1 0x1F DUP4 ADD AND SWAP1 POP SWAP2 SWAP1 POP JUMP JUMPDEST PUSH32 0x4E487B7100000000000000000000000000000000000000000000000000000000 PUSH0 MSTORE PUSH1 0x41 PUSH1 0x4 MSTORE PUSH1 0x24 PUSH0 REVERT JUMPDEST PUSH2 0x379 DUP3 PUSH2 0x333 JUMP JUMPDEST DUP2 ADD DUP2 DUP2 LT PUSH8 0xFFFFFFFFFFFFFFFF DUP3 GT OR ISZERO PUSH2 0x398 JUMPI PUSH2 0x397 PUSH2 0x343 JUMP JUMPDEST JUMPDEST DUP1 PUSH1 0x40 MSTORE POP POP POP JUMP JUMPDEST PUSH0 PUSH2 0x3AA PUSH2 0x294 JUMP JUMPDEST SWAP1 POP PUSH2 0x3B6 DUP3 DUP3 PUSH2 0x370 JUMP JUMPDEST SWAP2 SWAP1 POP JUMP JUMPDEST PUSH0 PUSH8 0xFFFFFFFFFFFFFFFF DUP3 GT ISZERO PUSH2 0x3D5 JUMPI PUSH2 0x3D4 PUSH2 0x343 JUMP JUMPDEST JUMPDEST PUSH2 0x3DE DUP3 PUSH2 0x333 JUMP JUMPDEST SWAP1 POP PUSH1 0x20 DUP2 ADD SWAP1 POP SWAP2 SWAP1 POP JUMP JUMPDEST DUP3 DUP2 DUP4 CALLDATACOPY PUSH0 DUP4 DUP4 ADD MSTORE POP POP POP JUMP JUMPDEST PUSH0 PUSH2 0x40B PUSH2 0x406 DUP5 PUSH2 0x3BB JUMP JUMPDEST PUSH2 0x3A1 JUMP JUMPDEST SWAP1 POP DUP3 DUP2 MSTORE PUSH1 0x20 DUP2 ADD DUP5 DUP5 DUP5 ADD GT ISZERO PUSH2 0x427 JUMPI PUSH2 0x426 PUSH2 0x32F JUMP JUMPDEST JUMPDEST PUSH2 0x432 DUP5 DUP3 DUP6 PUSH2 0x3EB JUMP JUMPDEST POP SWAP4 SWAP3 POP POP POP JUMP JUMPDEST PUSH0 DUP3 PUSH1 0x1F DUP4 ADD SLT PUSH2 0x44E JUMPI PUSH2 0x44D PUSH2 0x32B JUMP JUMPDEST JUMPDEST DUP2 CALLDATALOAD PUSH2 0x45E DUP5 DUP3 PUSH1 0x20 DUP7 ADD PUSH2 0x3F9 JUMP JUMPDEST SWAP2 POP POP SWAP3 SWAP2 POP POP JUMP JUMPDEST PUSH0 DUP1 PUSH0 PUSH1 0x60 DUP5 DUP7 SUB SLT ISZERO PUSH2 0x47E JUMPI PUSH2 0x47D PUSH2 0x29D JUMP JUMPDEST JUMPDEST PUSH0 DUP5 ADD CALLDATALOAD PUSH8 0xFFFFFFFFFFFFFFFF DUP2 GT ISZERO PUSH2 0x49B JUMPI PUSH2 0x49A PUSH2 0x2A1 JUMP JUMPDEST JUMPDEST PUSH2 0x4A7 DUP7 DUP3 DUP8 ADD PUSH2 0x43A JUMP JUMPDEST SWAP4 POP POP PUSH1 0x20 PUSH2 0x4B8 DUP7 DUP3 DUP8 ADD PUSH2 0x2C4 JUMP JUMPDEST SWAP3 POP POP PUSH1 0x40 PUSH2 0x4C9 DUP7 DUP3 DUP8 ADD PUSH2 0x2C4 JUMP JUMPDEST SWAP2 POP POP SWAP3 POP SWAP3 POP SWAP3 JUMP JUMPDEST PUSH32 0x4E487B7100000000000000000000000000000000000000000000000000000000 PUSH0 MSTORE PUSH1 0x11 PUSH1 0x4 MSTORE PUSH1 0x24 PUSH0 REVERT JUMPDEST PUSH0 PUSH2 0x50A DUP3 PUSH2 0x2A5 JUMP JUMPDEST SWAP2 POP PUSH2 0x515 DUP4 PUSH2 0x2A5 JUMP JUMPDEST SWAP3 POP DUP3 DUP3 ADD SWAP1 POP DUP1 DUP3 GT ISZERO PUSH2 0x52D JUMPI PUSH2 0x52C PUSH2 0x4D3 JUMP JUMPDEST JUMPDEST SWAP3 SWAP2 POP POP JUMP JUMPDEST PUSH0 DUP2 MLOAD SWAP1 POP SWAP2 SWAP1 POP JUMP JUMPDEST PUSH0 DUP2 SWAP1 POP SWAP3 SWAP2 POP POP JUMP JUMPDEST DUP3 DUP2 DUP4 MCOPY PUSH0 DUP4 DUP4 ADD MSTORE POP POP POP JUMP JUMPDEST PUSH0 PUSH2 0x55F DUP3 PUSH2 0x533 JUMP JUMPDEST PUSH2 0x569 DUP2 DUP6 PUSH2 0x53D JUMP JUMPDEST SWAP4 POP PUSH2 0x579 DUP2 DUP6 PUSH1 0x20 DUP7 ADD PUSH2 0x547 JUMP JUMPDEST DUP1 DUP5 ADD SWAP2 POP POP SWAP3 SWAP2 POP POP JUMP JUMPDEST PUSH0 PUSH2 0x590 DUP3 DUP5 PUSH2 0x555 JUMP JUMPDEST SWAP2 POP DUP2 SWAP1 POP SWAP3 SWAP2 POP POP JUMP JUMPDEST PUSH32 0x73756D6100000000000000000000000000000000000000000000000000000000 PUSH0 DUP3 ADD MSTORE POP JUMP JUMPDEST PUSH0 PUSH2 0x5CF PUSH1 0x4 DUP4 PUSH2 0x53D JUMP JUMPDEST SWAP2 POP PUSH2 0x5DA DUP3 PUSH2 0x59B JUMP JUMPDEST PUSH1 0x4 DUP3 ADD SWAP1 POP SWAP2 SWAP1 POP JUMP JUMPDEST PUSH0 PUSH2 0x5EF DUP3 PUSH2 0x5C3 JUMP JUMPDEST SWAP2 POP DUP2 SWAP1 POP SWAP2 SWAP1 POP JUMP JUMPDEST PUSH32 0x7265737461000000000000000000000000000000000000000000000000000000 PUSH0 DUP3 ADD MSTORE POP JUMP JUMPDEST PUSH0 PUSH2 0x62D PUSH1 0x5 DUP4 PUSH2 0x53D JUMP JUMPDEST SWAP2 POP PUSH2 0x638 DUP3 PUSH2 0x5F9 JUMP JUMPDEST PUSH1 0x5 DUP3 ADD SWAP1 POP SWAP2 SWAP1 POP JUMP JUMPDEST PUSH0 PUSH2 0x64D DUP3 PUSH2 0x621 JUMP JUMPDEST SWAP2 POP DUP2 SWAP1 POP SWAP2 SWAP1 POP JUMP JUMPDEST PUSH0 PUSH2 0x661 DUP3 PUSH2 0x2A5 JUMP JUMPDEST SWAP2 POP PUSH2 0x66C DUP4 PUSH2 0x2A5 JUMP JUMPDEST SWAP3 POP DUP3 DUP3 SUB SWAP1 POP DUP2 DUP2 GT ISZERO PUSH2 0x684 JUMPI PUSH2 0x683 PUSH2 0x4D3 JUMP JUMPDEST JUMPDEST SWAP3 SWAP2 POP POP JUMP JUMPDEST PUSH32 0x6469766973696F6E000000000000000000000000000000000000000000000000 PUSH0 DUP3 ADD MSTORE POP JUMP JUMPDEST PUSH0 PUSH2 0x6BE PUSH1 0x8 DUP4 PUSH2 0x53D JUMP JUMPDEST SWAP2 POP PUSH2 0x6C9 DUP3 PUSH2 0x68A JUMP JUMPDEST PUSH1 0x8 DUP3 ADD SWAP1 POP SWAP2 SWAP1 POP JUMP JUMPDEST PUSH0 PUSH2 0x6DE DUP3 PUSH2 0x6B2 JUMP JUMPDEST SWAP2 POP DUP2 SWAP1 POP SWAP2 SWAP1 POP JUMP JUMPDEST PUSH32 0x4E487B7100000000000000000000000000000000000000000000000000000000 PUSH0 MSTORE PUSH1 0x12 PUSH1 0x4 MSTORE PUSH1 0x24 PUSH0 REVERT JUMPDEST PUSH0 PUSH2 0x71F DUP3 PUSH2 0x2A5 JUMP JUMPDEST SWAP2 POP PUSH2 0x72A DUP4 PUSH2 0x2A5 JUMP JUMPDEST SWAP3 POP DUP3 PUSH2 0x73A JUMPI PUSH2 0x739 PUSH2 0x6E8 JUMP JUMPDEST JUMPDEST DUP3 DUP3 DIV SWAP1 POP SWAP3 SWAP2 POP POP JUMP JUMPDEST PUSH32 0x6D756C7469706C69636163696F6E000000000000000000000000000000000000 PUSH0 DUP3 ADD MSTORE POP JUMP JUMPDEST PUSH0 PUSH2 0x779 PUSH1 0xE DUP4 PUSH2 0x53D JUMP JUMPDEST SWAP2 POP PUSH2 0x784 DUP3 PUSH2 0x745 JUMP JUMPDEST PUSH1 0xE DUP3 ADD SWAP1 POP SWAP2 SWAP1 POP JUMP JUMPDEST PUSH0 PUSH2 0x799 DUP3 PUSH2 0x76D JUMP JUMPDEST SWAP2 POP DUP2 SWAP1 POP SWAP2 SWAP1 POP JUMP JUMPDEST PUSH0 PUSH2 0x7AD DUP3 PUSH2 0x2A5 JUMP JUMPDEST SWAP2 POP PUSH2 0x7B8 DUP4 PUSH2 0x2A5 JUMP JUMPDEST SWAP3 POP DUP3 DUP3 MUL PUSH2 0x7C6 DUP2 PUSH2 0x2A5 JUMP JUMPDEST SWAP2 POP DUP3 DUP3 DIV DUP5 EQ DUP4 ISZERO OR PUSH2 0x7DD JUMPI PUSH2 0x7DC PUSH2 0x4D3 JUMP JUMPDEST JUMPDEST POP SWAP3 SWAP2 POP POP JUMP JUMPDEST PUSH0 PUSH2 0x7EE DUP3 PUSH2 0x2A5 JUMP JUMPDEST SWAP2 POP PUSH2 0x7F9 DUP4 PUSH2 0x2A5 JUMP JUMPDEST SWAP3 POP DUP3 PUSH2 0x809 JUMPI PUSH2 0x808 PUSH2 0x6E8 JUMP JUMPDEST JUMPDEST DUP3 DUP3 MOD SWAP1 POP SWAP3 SWAP2 POP POP JUMP JUMPDEST PUSH0 PUSH2 0x81E DUP3 PUSH2 0x2A5 JUMP JUMPDEST SWAP2 POP PUSH32 0xFFFFFFFFFFFFFFFFFFFFFFFFFFFFFFFFFFFFFFFFFFFFFFFFFFFFFFFFFFFFFFFF DUP3 SUB PUSH2 0x850 JUMPI PUSH2 0x84F PUSH2 0x4D3 JUMP JUMPDEST JUMPDEST PUSH1 0x1 DUP3 ADD SWAP1 POP SWAP2 SWAP1 POP JUMP INVALID LOG2 PUSH5 0x6970667358 0x22 SLT KECCAK256 0x2D CREATE2 0xBE SHR JUMP MOD 0x4D CREATE2 0xDF 0xD9 0xD7 SGT 0xEC JUMP 0xCF 0xF SWAP16 0xE2 DUP11 0xBC 0xEA DUP6 0xFC 0xDA PUSH2 0x15F8 0xE9 0xBA 0xAF 0xA8 0xB7 PUSH5 0x736F6C6343 STOP ADDMOD BYTE STOP CALLER "
		},
		"gasEstimates": {
			"creation": {
				"codeDepositCost": "438600",
				"executionCost": "472",
				"totalCost": "439072"
			},
			"external": {
				"odd()": "infinite",
				"operations(string,uint256,uint256)": "infinite",
				"sum(uint256)": "infinite"
			}
		},
		"methodIdentifiers": {
			"odd()": "c12363a2",
			"operations(string,uint256,uint256)": "5ffe8733",
			"sum(uint256)": "188b85b4"
		}
	},
	"abi": [
		{
			"inputs": [],
			"name": "odd",
			"outputs": [
				{
					"internalType": "uint256",
					"name": "",
					"type": "uint256"
				}
			],
			"stateMutability": "pure",
			"type": "function"
		},
		{
			"inputs": [
				{
					"internalType": "string",
					"name": "operation",
					"type": "string"
				},
				{
					"internalType": "uint256",
					"name": "a",
					"type": "uint256"
				},
				{
					"internalType": "uint256",
					"name": "b",
					"type": "uint256"
				}
			],
			"name": "operations",
			"outputs": [
				{
					"internalType": "uint256",
					"name": "",
					"type": "uint256"
				}
			],
			"stateMutability": "pure",
			"type": "function"
		},
		{
			"inputs": [
				{
					"internalType": "uint256",
					"name": "_number",
					"type": "uint256"
				}
			],
			"name": "sum",
			"outputs": [
				{
					"internalType": "uint256",
					"name": "",
					"type": "uint256"
				}
			],
			"stateMutability": "pure",
			"type": "function"
		}
	]
}